{
  "contractName": "SandpitOne",
  "abi": [
    {
      "inputs": [],
      "stateMutability": "nonpayable",
      "type": "constructor"
    },
    {
      "anonymous": false,
      "inputs": [
        {
          "indexed": false,
          "internalType": "address",
          "name": "from",
          "type": "address"
        },
        {
          "indexed": false,
          "internalType": "address",
          "name": "to",
          "type": "address"
        },
        {
          "indexed": false,
          "internalType": "uint256",
          "name": "amount",
          "type": "uint256"
        }
      ],
      "name": "Sent",
      "type": "event"
    },
    {
      "inputs": [
        {
          "internalType": "address",
          "name": "",
          "type": "address"
        }
      ],
      "name": "balances",
      "outputs": [
        {
          "internalType": "uint256",
          "name": "",
          "type": "uint256"
        }
      ],
      "stateMutability": "view",
      "type": "function"
    },
    {
      "inputs": [],
      "name": "minter",
      "outputs": [
        {
          "internalType": "address",
          "name": "",
          "type": "address"
        }
      ],
      "stateMutability": "view",
      "type": "function"
    },
    {
      "inputs": [
        {
          "internalType": "address",
          "name": "receiver",
          "type": "address"
        },
        {
          "internalType": "uint256",
          "name": "amount",
          "type": "uint256"
        }
      ],
      "name": "mint",
      "outputs": [],
      "stateMutability": "nonpayable",
      "type": "function"
    }
  ],
  "bytecode": "0x608060405234801561001057600080fd5b50336000806101000a81548173ffffffffffffffffffffffffffffffffffffffff021916908373ffffffffffffffffffffffffffffffffffffffff160217905550610466806100606000396000f3fe608060405234801561001057600080fd5b50600436106100415760003560e01c8063075461721461004657806327e235e31461006457806340c10f1914610094575b600080fd5b61004e6100b0565b60405161005b91906102ac565b60405180910390f35b61007e600480360381019061007991906101fe565b6100d4565b60405161008b91906102e7565b60405180910390f35b6100ae60048036038101906100a9919061022b565b6100ec565b005b60008054906101000a900473ffffffffffffffffffffffffffffffffffffffff1681565b60016020528060005260406000206000915090505481565b60008054906101000a900473ffffffffffffffffffffffffffffffffffffffff1673ffffffffffffffffffffffffffffffffffffffff163373ffffffffffffffffffffffffffffffffffffffff161461017a576040517f08c379a0000000000000000000000000000000000000000000000000000000008152600401610171906102c7565b60405180910390fd5b80600160008473ffffffffffffffffffffffffffffffffffffffff1673ffffffffffffffffffffffffffffffffffffffff16815260200190815260200160002060008282546101c99190610313565b925050819055505050565b6000813590506101e381610402565b92915050565b6000813590506101f881610419565b92915050565b600060208284031215610214576102136103d4565b5b6000610222848285016101d4565b91505092915050565b60008060408385031215610242576102416103d4565b5b6000610250858286016101d4565b9250506020610261858286016101e9565b9150509250929050565b61027481610369565b82525050565b6000610287601f83610302565b9150610292826103d9565b602082019050919050565b6102a68161039b565b82525050565b60006020820190506102c1600083018461026b565b92915050565b600060208201905081810360008301526102e08161027a565b9050919050565b60006020820190506102fc600083018461029d565b92915050565b600082825260208201905092915050565b600061031e8261039b565b91506103298361039b565b9250827fffffffffffffffffffffffffffffffffffffffffffffffffffffffffffffffff0382111561035e5761035d6103a5565b5b828201905092915050565b60006103748261037b565b9050919050565b600073ffffffffffffffffffffffffffffffffffffffff82169050919050565b6000819050919050565b7f4e487b7100000000000000000000000000000000000000000000000000000000600052601160045260246000fd5b600080fd5b7f73656e6465722073686f756c64206265206d696e746572206164647265737300600082015250565b61040b81610369565b811461041657600080fd5b50565b6104228161039b565b811461042d57600080fd5b5056fea26469706673582212202fb0dd16dcfbc424de66337c15e40ce977ec569d59fdb99db031a89fbaf6991e64736f6c63430008070033",
  "immutableReferences": {},
  "source": "// SPDX-License-Identifier: MIT\npragma solidity 0.8.7;\n\ncontract SandpitOne {\n  address public minter;\n  mapping (address => uint) public balances;\n\n  event Sent(address from, address to, uint amount);\n\n  constructor() {\n    minter = msg.sender;\n  }\n\n  function mint(address receiver, uint amount) public {\n    require(msg.sender == minter, \"sender should be minter address\");\n    balances[receiver] += amount;\n  }\n\n  // error InsufficientBalance(uint requested, uint available);\n\n  // function send(address receiver, uint amount) public {\n  //   if (amount > balances[msg.sender])\n  //     revert InsufficientBalance({\n  //       requested: amount,\n  //       available: balances[msg.sender]\n  //     });\n\n  //   balances[msg.sender] -= amount;\n  //   balances[receiver] += amount;\n  //   emit Sent(msg.sender, receiver, amount);\n  // }\n}\n",
  "sourcePath": "C:\\Users\\Neel Patel\\Projects\\fantom-sandbox\\contracts\\SandpitOne.sol",
  "compiler": {
    "name": "solc",
    "version": "0.8.7+commit.e28d00a7.Emscripten.clang"
  },
  "schemaVersion": "3.4.3",
  "updatedAt": "2021-09-17T00:51:39.854Z",
  "devdoc": {
    "kind": "dev",
    "methods": {},
    "version": 1
  },
  "userdoc": {
    "kind": "user",
    "methods": {},
    "version": 1
  }
}